{
  "contractName": "CompoundWallet",
  "abi": [
    {
      "inputs": [],
      "payable": false,
      "stateMutability": "nonpayable",
      "type": "constructor"
    },
    {
      "anonymous": false,
      "inputs": [
        {
          "indexed": false,
          "internalType": "string",
          "name": "",
          "type": "string"
        },
        {
          "indexed": false,
          "internalType": "uint256",
          "name": "",
          "type": "uint256"
        }
      ],
      "name": "MyLog",
      "type": "event"
    },
    {
      "payable": true,
      "stateMutability": "payable",
      "type": "fallback"
    },
    {
      "constant": false,
      "inputs": [
        {
          "internalType": "address payable",
          "name": "_cEtherContract",
          "type": "address"
        }
      ],
      "name": "supplyEthToCompound",
      "outputs": [
        {
          "internalType": "bool",
          "name": "",
          "type": "bool"
        }
      ],
      "payable": true,
      "stateMutability": "payable",
      "type": "function"
    },
    {
      "constant": false,
      "inputs": [
        {
          "internalType": "uint256",
          "name": "amount",
          "type": "uint256"
        },
        {
          "internalType": "bool",
          "name": "redeemType",
          "type": "bool"
        },
        {
          "internalType": "address",
          "name": "_cETHContract",
          "type": "address"
        }
      ],
      "name": "redeemcETHTokens",
      "outputs": [
        {
          "internalType": "bool",
          "name": "",
          "type": "bool"
        }
      ],
      "payable": false,
      "stateMutability": "nonpayable",
      "type": "function"
    },
    {
      "constant": false,
      "inputs": [
        {
          "internalType": "uint256",
          "name": "amount",
          "type": "uint256"
        }
      ],
      "name": "withdrawETH",
      "outputs": [],
      "payable": false,
      "stateMutability": "nonpayable",
      "type": "function"
    }
  ],
  "bytecode": "0x608060405234801561001057600080fd5b50336000806101000a81548173ffffffffffffffffffffffffffffffffffffffff021916908373ffffffffffffffffffffffffffffffffffffffff1602179055506106ba806100606000396000f3fe6080604052600436106100345760003560e01c8063677c0f1214610036578063a82ffd88146100b5578063f14210a614610111575b005b34801561004257600080fd5b5061009b6004803603606081101561005957600080fd5b8101908080359060200190929190803515159060200190929190803573ffffffffffffffffffffffffffffffffffffffff16906020019092919050505061014c565b604051808215151515815260200191505060405180910390f35b6100f7600480360360208110156100cb57600080fd5b81019080803573ffffffffffffffffffffffffffffffffffffffff1690602001909291905050506102e7565b604051808215151515815260200191505060405180910390f35b34801561011d57600080fd5b5061014a6004803603602081101561013457600080fd5b8101908080359060200190929190505050610532565b005b60008082905060006001151585151514156101f6578173ffffffffffffffffffffffffffffffffffffffff1663db006a75876040518263ffffffff1660e01b815260040180828152602001915050602060405180830381600087803b1580156101b457600080fd5b505af11580156101c8573d6000803e3d6000fd5b505050506040513d60208110156101de57600080fd5b81019080805190602001909291905050509050610287565b8173ffffffffffffffffffffffffffffffffffffffff1663852a12e3876040518263ffffffff1660e01b815260040180828152602001915050602060405180830381600087803b15801561024957600080fd5b505af115801561025d573d6000803e3d6000fd5b505050506040513d602081101561027357600080fd5b810190808051906020019092919050505090505b7f8d1cced004452bd270777a8c670f9f7e7c4fdde56f2db331fe289d39dc2624ad8160405180806020018381526020018281038252602481526020018061063f602491396040019250505060405180910390a16001925050509392505050565b60008082905060008173ffffffffffffffffffffffffffffffffffffffff1663bd6d894d6040518163ffffffff1660e01b8152600401602060405180830381600087803b15801561033757600080fd5b505af115801561034b573d6000803e3d6000fd5b505050506040513d602081101561036157600080fd5b810190808051906020019092919050505090507f8d1cced004452bd270777a8c670f9f7e7c4fdde56f2db331fe289d39dc2624ad81604051808060200183815260200182810382526023815260200180610663602391396040019250505060405180910390a160008273ffffffffffffffffffffffffffffffffffffffff1663ae9d70b06040518163ffffffff1660e01b8152600401602060405180830381600087803b15801561041157600080fd5b505af1158015610425573d6000803e3d6000fd5b505050506040513d602081101561043b57600080fd5b810190808051906020019092919050505090507f8d1cced004452bd270777a8c670f9f7e7c4fdde56f2db331fe289d39dc2624ad816040518080602001838152602001828103825260208152602001807f537570706c7920526174653a20287363616c65642075702062792031653138298152506020019250505060405180910390a18273ffffffffffffffffffffffffffffffffffffffff16631249c58b3463017d7840906040518363ffffffff1660e01b81526004016000604051808303818589803b15801561050c57600080fd5b5088f1158015610520573d6000803e3d6000fd5b50505050505060019350505050919050565b6000809054906101000a900473ffffffffffffffffffffffffffffffffffffffff1673ffffffffffffffffffffffffffffffffffffffff163373ffffffffffffffffffffffffffffffffffffffff16146105f4576040517f08c379a000000000000000000000000000000000000000000000000000000000815260040180806020018281038252600e8152602001807f4d7573742062652061646d696e2100000000000000000000000000000000000081525060200191505060405180910390fd5b3373ffffffffffffffffffffffffffffffffffffffff166108fc829081150290604051600060405180830381858888f1935050505015801561063a573d6000803e3d6000fd5b505056fe49662074686973206973206e6f7420302c2074686572652077617320616e206572726f7245786368616e6765205261746520287363616c65642075702062792031653138293a20a265627a7a723158204f6a18447cde72555505b3bc10636bf4e4c55957c9d2cfd946ad968034ff136764736f6c634300050c0032",
  "source": "pragma solidity ^0.5.12;\r\n\r\ninterface cETH {\r\n    function mint() external payable;\r\n\r\n    function exchangeRateCurrent() external returns (uint256);\r\n\r\n    function supplyRatePerBlock() external returns (uint256);\r\n\r\n    function redeem(uint) external returns (uint);\r\n\r\n    function redeemUnderlying(uint) external returns (uint);\r\n}\r\n\r\ncontract CompoundWallet {\r\n\r\n    address admin;\r\n\r\n    constructor() public {\r\n        admin = msg.sender;\r\n    }\r\n\r\n    event MyLog(string, uint256);\r\n\r\n    function supplyEthToCompound(address payable _cEtherContract) public payable returns (bool) {\r\n        // Create a reference to the corresponding cToken contract\r\n        cETH cToken = cETH(_cEtherContract);\r\n\r\n        // Amount of current exchange rate from cToken to underlying\r\n        uint256 exchangeRateMantissa = cToken.exchangeRateCurrent();\r\n        emit MyLog(\"Exchange Rate (scaled up by 1e18): \", exchangeRateMantissa);\r\n\r\n        // Amount added to you supply balance this block\r\n        uint256 supplyRateMantissa = cToken.supplyRatePerBlock();\r\n        emit MyLog(\"Supply Rate: (scaled up by 1e18)\", supplyRateMantissa);\r\n\r\n        cToken.mint.value(msg.value).gas(25000000)();\r\n        return true;\r\n    }\r\n\r\n    function redeemcETHTokens(uint256 amount, bool redeemType, address _cETHContract) public returns (bool) {\r\n        // Create a reference to the corresponding cToken contract, like cDAI\r\n        cETH cToken = cETH(_cETHContract);\r\n\r\n        uint256 redeemResult;\r\n\r\n        if (redeemType == true) {\r\n            // Retrieve your asset based on a cToken amount\r\n            redeemResult = cToken.redeem(amount);\r\n        } else {\r\n            // Retrieve your asset based on an amount of the asset\r\n            redeemResult = cToken.redeemUnderlying(amount);\r\n        }\r\n        \r\n        // Error codes are listed here:\r\n        // https://compound.finance/developers/ctokens#ctoken-error-codes\r\n        emit MyLog(\"If this is not 0, there was an error\", redeemResult);\r\n\r\n        return true;\r\n    }\r\n\r\n    function withdrawETH(uint amount) public onlyAdmin() {\r\n        address(msg.sender).transfer(amount);\r\n    }\r\n\r\n\r\n    // This is needed to receive ETH when calling `redeemCEth`\r\n    function() external payable {}\r\n\r\n    modifier onlyAdmin() {\r\n        require(msg.sender == admin, 'Must be admin!');\r\n        _;\r\n    }\r\n}",
  "sourcePath": "C:/Users/jarha/Desktop/defi/compound-ropsten/contracts/CompoundWallet.sol",
  "compiler": {
    "name": "solc",
    "version": "0.5.12+commit.7709ece9.Emscripten.clang"
  },
  "schemaVersion": "3.0.20",
  "updatedAt": "2021-03-11T01:25:20.416Z",
  "networkType": "ethereum",
  "devdoc": {
    "methods": {}
  },
  "userdoc": {
    "methods": {}
  }
}