{
  "contractName": "CompoundWallet",
  "abi": [
    {
      "anonymous": false,
      "inputs": [
        {
          "indexed": false,
          "internalType": "string",
          "name": "",
          "type": "string"
        },
        {
          "indexed": false,
          "internalType": "uint256",
          "name": "",
          "type": "uint256"
        }
      ],
      "name": "MyLog",
      "type": "event"
    },
    {
      "constant": false,
      "inputs": [
        {
          "internalType": "address",
          "name": "_cETHContract",
          "type": "address"
        },
        {
          "internalType": "uint256",
          "name": "_numTokensToSupply",
          "type": "uint256"
        }
      ],
      "name": "supplyETHToCompound",
      "outputs": [
        {
          "internalType": "uint256",
          "name": "",
          "type": "uint256"
        }
      ],
      "payable": false,
      "stateMutability": "nonpayable",
      "type": "function"
    },
    {
      "constant": false,
      "inputs": [
        {
          "internalType": "uint256",
          "name": "amount",
          "type": "uint256"
        },
        {
          "internalType": "address",
          "name": "_cETHContract",
          "type": "address"
        }
      ],
      "name": "redeemcETHTokens",
      "outputs": [
        {
          "internalType": "bool",
          "name": "",
          "type": "bool"
        }
      ],
      "payable": false,
      "stateMutability": "nonpayable",
      "type": "function"
    }
  ],
  "bytecode": "0x608060405234801561001057600080fd5b5061055c806100206000396000f3fe608060405234801561001057600080fd5b50600436106100365760003560e01c80638bb2dba61461003b578063db927591146100a1575b600080fd5b6100876004803603604081101561005157600080fd5b8101908080359060200190929190803573ffffffffffffffffffffffffffffffffffffffff169060200190929190505050610103565b604051808215151515815260200191505060405180910390f35b6100ed600480360360408110156100b757600080fd5b81019080803573ffffffffffffffffffffffffffffffffffffffff16906020019092919080359060200190929190505050610270565b6040518082815260200191505060405180910390f35b60008082905060008173ffffffffffffffffffffffffffffffffffffffff1663db006a75866040518263ffffffff1660e01b815260040180828152602001915050602060405180830381600087803b15801561015e57600080fd5b505af1158015610172573d6000803e3d6000fd5b505050506040513d602081101561018857600080fd5b810190808051906020019092919050505090507f8d1cced004452bd270777a8c670f9f7e7c4fdde56f2db331fe289d39dc2624ad81604051808060200183815260200182810382526024815260200180610504602491396040019250505060405180910390a160008114610264576040517f08c379a00000000000000000000000000000000000000000000000000000000081526004018080602001828103825260128152602001807f72656465656d526573756c74206572726f72000000000000000000000000000081525060200191505060405180910390fd5b60019250505092915050565b60008083905060008173ffffffffffffffffffffffffffffffffffffffff1663bd6d894d6040518163ffffffff1660e01b8152600401602060405180830381600087803b1580156102c057600080fd5b505af11580156102d4573d6000803e3d6000fd5b505050506040513d60208110156102ea57600080fd5b810190808051906020019092919050505090507f8d1cced004452bd270777a8c670f9f7e7c4fdde56f2db331fe289d39dc2624ad8160405180806020018381526020018281038252601b8152602001807f45786368616e6765205261746520287363616c6564207570293a2000000000008152506020019250505060405180910390a160008273ffffffffffffffffffffffffffffffffffffffff1663ae9d70b06040518163ffffffff1660e01b8152600401602060405180830381600087803b1580156103b757600080fd5b505af11580156103cb573d6000803e3d6000fd5b505050506040513d60208110156103e157600080fd5b810190808051906020019092919050505090507f8d1cced004452bd270777a8c670f9f7e7c4fdde56f2db331fe289d39dc2624ad816040518080602001838152602001828103825260188152602001807f537570706c7920526174653a20287363616c65642075702900000000000000008152506020019250505060405180910390a160008373ffffffffffffffffffffffffffffffffffffffff1663a0712d68876040518263ffffffff1660e01b815260040180828152602001915050602060405180830381600087803b1580156104b957600080fd5b505af11580156104cd573d6000803e3d6000fd5b505050506040513d60208110156104e357600080fd5b81019080805190602001909291905050509050809450505050509291505056fe49662074686973206973206e6f7420302c2074686572652077617320616e206572726f72a265627a7a723158203f700446094158b0deaadff2c1ed004e819011b47776af983c76e70b18b70b0c64736f6c634300050c0032",
  "source": "pragma solidity ^0.5.12;\r\n\r\n\r\ninterface cETH {\r\n    function mint(uint256) external returns (uint256);\r\n\r\n    function exchangeRateCurrent() external returns (uint256);\r\n\r\n    function supplyRatePerBlock() external returns (uint256);\r\n\r\n    function redeem(uint) external returns (uint);\r\n\r\n    function redeemUnderlying(uint) external returns (uint);\r\n}\r\n\r\ncontract CompoundWallet {\r\n\r\n    event MyLog(string, uint256);\r\n\r\n    function supplyETHToCompound(address _cETHContract, uint256 _numTokensToSupply) public returns (uint) {\r\n        \r\n        // Create a reference to the corresponding cToken contract, like cDAI\r\n        cETH cToken = cETH(_cETHContract);\r\n\r\n        // Amount of current exchange rate from cToken to underlying\r\n        uint256 exchangeRateMantissa = cToken.exchangeRateCurrent();\r\n        emit MyLog(\"Exchange Rate (scaled up): \", exchangeRateMantissa);\r\n\r\n        // Amount added to you supply balance this block\r\n        uint256 supplyRateMantissa = cToken.supplyRatePerBlock();\r\n        emit MyLog(\"Supply Rate: (scaled up)\", supplyRateMantissa);\r\n\r\n        // Mint cTokens\r\n        uint mintResult = cToken.mint(_numTokensToSupply);\r\n        return mintResult;\r\n    }\r\n\r\n    function redeemcETHTokens(uint256 amount, address _cETHContract) public returns (bool) {\r\n        // Create a reference to the corresponding cToken contract, like cDAI\r\n        cETH cToken = cETH(_cETHContract);\r\n\r\n        uint256 redeemResult;\r\n\r\n        // Retrieve your asset based on a cToken amount\r\n        redeemResult = cToken.redeem(amount);\r\n    \r\n        \r\n\r\n        // Error codes are listed here:\r\n        // https://compound.finance/developers/ctokens#ctoken-error-codes\r\n        emit MyLog(\"If this is not 0, there was an error\", redeemResult);\r\n        require(redeemResult == 0, \"redeemResult error\");\r\n\r\n        return true;\r\n    }\r\n}",
  "sourcePath": "C:/Users/jarha/Desktop/defi/compound-ropsten/contracts/CompoundWallet.sol",
  "compiler": {
    "name": "solc",
    "version": "0.5.12+commit.7709ece9.Emscripten.clang"
  },
  "schemaVersion": "3.0.20",
  "updatedAt": "2021-02-10T01:37:25.174Z",
  "devdoc": {
    "methods": {}
  },
  "userdoc": {
    "methods": {}
  }
}