{
  "contractName": "CompoundWallet",
  "abi": [
    {
      "anonymous": false,
      "inputs": [
        {
          "indexed": false,
          "internalType": "string",
          "name": "",
          "type": "string"
        },
        {
          "indexed": false,
          "internalType": "uint256",
          "name": "",
          "type": "uint256"
        }
      ],
      "name": "MyLog",
      "type": "event"
    },
    {
      "payable": true,
      "stateMutability": "payable",
      "type": "fallback"
    },
    {
      "constant": false,
      "inputs": [
        {
          "internalType": "address payable",
          "name": "_cEtherContract",
          "type": "address"
        }
      ],
      "name": "supplyEthToCompound",
      "outputs": [
        {
          "internalType": "bool",
          "name": "",
          "type": "bool"
        }
      ],
      "payable": true,
      "stateMutability": "payable",
      "type": "function"
    },
    {
      "constant": false,
      "inputs": [
        {
          "internalType": "uint256",
          "name": "amount",
          "type": "uint256"
        },
        {
          "internalType": "address",
          "name": "_cETHContract",
          "type": "address"
        }
      ],
      "name": "redeemcETHTokens",
      "outputs": [
        {
          "internalType": "bool",
          "name": "",
          "type": "bool"
        }
      ],
      "payable": false,
      "stateMutability": "nonpayable",
      "type": "function"
    }
  ],
  "bytecode": "0x608060405234801561001057600080fd5b50610280806100206000396000f3fe6080604052600436106100295760003560e01c80638bb2dba61461002b578063a82ffd881461009e575b005b34801561003757600080fd5b506100846004803603604081101561004e57600080fd5b8101908080359060200190929190803573ffffffffffffffffffffffffffffffffffffffff1690602001909291905050506100fa565b604051808215151515815260200191505060405180910390f35b6100e0600480360360208110156100b457600080fd5b81019080803573ffffffffffffffffffffffffffffffffffffffff1690602001909291905050506101f1565b604051808215151515815260200191505060405180910390f35b60008082905060008173ffffffffffffffffffffffffffffffffffffffff1663852a12e3866040518263ffffffff1660e01b815260040180828152602001915050602060405180830381600087803b15801561015557600080fd5b505af1158015610169573d6000803e3d6000fd5b505050506040513d602081101561017f57600080fd5b810190808051906020019092919050505090507f8d1cced004452bd270777a8c670f9f7e7c4fdde56f2db331fe289d39dc2624ad81604051808060200183815260200182810382526024815260200180610228602491396040019250505060405180910390a160019250505092915050565b6000808290508073ffffffffffffffffffffffffffffffffffffffff1663a0712d68346203d0909050505050600191505091905056fe49662074686973206973206e6f7420302c2074686572652077617320616e206572726f72a265627a7a723158203eb6ee2dd0bc063eb0aab7a6b24ed0be67e657251715c03cff287f19a9f97e3a64736f6c634300050c0032",
  "source": "pragma solidity ^0.5.12;\r\n\r\n\r\ninterface cETH {\r\n    function mint(uint256) external payable;\r\n\r\n    function exchangeRateCurrent() external returns (uint256);\r\n\r\n    function supplyRatePerBlock() external returns (uint256);\r\n\r\n    function redeem(uint) external returns (uint);\r\n\r\n    function redeemUnderlying(uint) external returns (uint);\r\n}\r\n\r\ncontract CompoundWallet {\r\n\r\n    event MyLog(string, uint256);\r\n\r\n    function supplyEthToCompound(address payable _cEtherContract)public payable returns (bool) {\r\n        // Create a reference to the corresponding cToken contract\r\n        cETH cToken = cETH(_cEtherContract);\r\n\r\n        cToken.mint.value(msg.value).gas(250000);\r\n        return true;\r\n    }\r\n\r\n    function redeemcETHTokens(uint256 amount, address _cETHContract) public returns (bool) {\r\n        // Create a reference to the corresponding cToken contract, like cDAI\r\n        cETH cToken = cETH(_cETHContract);\r\n\r\n        uint256 redeemResult;\r\n\r\n        // Retrieve your asset based on a cToken amount\r\n        redeemResult = cToken.redeemUnderlying(amount);\r\n    \r\n        // Error codes are listed here:\r\n        // https://compound.finance/developers/ctokens#ctoken-error-codes\r\n        emit MyLog(\"If this is not 0, there was an error\", redeemResult);\r\n\r\n        return true;\r\n    }\r\n\r\n    // This is needed to receive ETH when calling `redeemCEth`\r\n    function() external payable {}\r\n}",
  "sourcePath": "C:/Users/jarha/Desktop/defi/compound-ropsten/contracts/CompoundWallet.sol",
  "compiler": {
    "name": "solc",
    "version": "0.5.12+commit.7709ece9.Emscripten.clang"
  },
  "schemaVersion": "3.0.20",
  "updatedAt": "2021-02-11T02:19:51.484Z",
  "networkType": "ethereum",
  "devdoc": {
    "methods": {}
  },
  "userdoc": {
    "methods": {}
  }
}