{
  "contractName": "Count",
  "abi": [
    {
      "inputs": [],
      "stateMutability": "nonpayable",
      "type": "constructor"
    },
    {
      "inputs": [],
      "name": "admin",
      "outputs": [
        {
          "internalType": "address",
          "name": "",
          "type": "address"
        }
      ],
      "stateMutability": "view",
      "type": "function",
      "constant": true
    },
    {
      "inputs": [],
      "name": "count",
      "outputs": [
        {
          "internalType": "uint256",
          "name": "",
          "type": "uint256"
        }
      ],
      "stateMutability": "view",
      "type": "function",
      "constant": true
    },
    {
      "inputs": [],
      "name": "increment",
      "outputs": [],
      "stateMutability": "nonpayable",
      "type": "function"
    }
  ],
  "bytecode": "0x60806040526001805534801561001457600080fd5b50336000806101000a81548173ffffffffffffffffffffffffffffffffffffffff021916908373ffffffffffffffffffffffffffffffffffffffff160217905550610120806100646000396000f3fe6080604052348015600f57600080fd5b5060043610603c5760003560e01c806306661abd146041578063d09de08a14605d578063f851a440146065575b600080fd5b604760ad565b6040518082815260200191505060405180910390f35b606360b3565b005b606b60c5565b604051808273ffffffffffffffffffffffffffffffffffffffff1673ffffffffffffffffffffffffffffffffffffffff16815260200191505060405180910390f35b60015481565b60018060008282540192505081905550565b6000809054906101000a900473ffffffffffffffffffffffffffffffffffffffff168156fea264697066735822122054b07a545fc6157f67bd816e79ad70c60e155ac3610ad265966f72391fc2e26c64736f6c63430006000033",
  "source": "pragma solidity ^0.6.0;\r\n\r\ncontract Count {\r\n    \r\n    address public admin;\r\n    uint public count = 1;\r\n    \r\n    constructor() public {\r\n        admin = msg.sender;\r\n    }\r\n\r\n    function increment() public {\r\n        count +=1;\r\n    }\r\n\r\n}",
  "sourcePath": "C:/Users/jarha/Desktop/template_V3/contracts/Count.sol",
  "compiler": {
    "name": "solc",
    "version": "0.6.0+commit.26b70077.Emscripten.clang"
  },
  "schemaVersion": "3.0.20",
  "updatedAt": "2021-02-09T02:36:39.418Z",
  "networkType": "ethereum",
  "devdoc": {
    "methods": {}
  },
  "userdoc": {
    "methods": {}
  }
}